:020000040000FA
:0200000038289E
:08000800A000030EA100210E6F
:100010008300A00E200E0900A20A13202208FF3C34
:10002000031D1F281628220988000800A203132098
:10003000220803194A282228061C33281C280618DF
:100040004A281F2806181C282228061C2A28FF30A8
:10005000A3002A28A303031D25280C28061C2A28F0
:10006000FF30A4003328A4032408031925281628E8
:10007000831600308800FF30860004308100803015
:100080008B0083122B309000A201FF30A300FF30C1
:0A009000A4001320061C2A284A28A9
:02400E00723FFF
:00000001FF
