:020000040000FA
:020000002028B6
:08000800A000030EA100210E6F
:100010008300A00E200E0900081036280814362888
:10002000881039288814392808113C2808153C28DC
:1000300088113F2888153F280812332808163328CE
:10004000831600308800FF308600FF3087000430C0
:10005000810080308B0083122B30900008148814AC
:1000600008158815081607180E280C288718122856
:10007000102806181628142806191A281828861871
:060080001E281C28332895
:02400E00723FFF
:00000001FF
