:020000040000FA
:020000004B288B
:08000800A000030EA100210E6F
:100010008300A00E200E0900A20A13202208093C2A
:10002000031D202817282208392088000800A20371
:1000300013202208031967282328061C34281D28AA
:1000400006186728202806181D282328061C2B2898
:100050000930A3002B28A303031D26280C28061C07
:100060002B280930A4003428A403240803192628C7
:1000700017280F3982073F3406345B344F34663417
:100080006D347D3407347F346F3479347934793486
:100090007934793479348316003088000030850053
:1000A00000308900FF3086000430810080308B00F2
:1000B00006309F0083122B30900085160515091419
:1000C0000915A2010930A3000930A4001320061C61
:0400D0002B2867284A
:02400E00723FFF
:00000001FF
